S01500006D6F746F724578616D706C65732E737265639F
S11300000C942A000C9434000C9434000C943400A6
S11300100C9434000C9434000C9434000C9434008C
S11300200C9434000C9434000C9434000C9434007C
S11300300C9434000C9434000C9434000C9434006C
S11300400C9434000C9434000C9434000C9434005C
S11300500C94340011241FBECFE5D8E0DEBFCDBF21
S11300600E9436000C9458000C94000084B38F63F3
S113007084BB85B3806285BB85B387608F7E8860CF
S113008085BB2FEF81E19AE7215080409040E1F752
S113009000C0000085B3807F806185BB2FEF81E1C4
S11300A09AE7215080409040E1F700C00000E4CF7F
S10700B0F894FFCFEE
S9030000FC
