S010000061746D65676133322E7372656340
S11300000C942A000C943F000C943F000C943F0085
S11300100C943F000C943F000C943F000C943F0060
S11300200C943F000C943F000C943F000C943F0050
S11300300C943F000C943F000C943F000C943F0040
S11300400C943F000C943F000C943F000C943F0030
S11300500C943F0011241FBECFE5D8E0DEBFCDBF16
S113006010E0A0E6B0E0ECE1F6E002C005900D92ED
S1130070A238B107D9F70E9414010C940C030C9414
S11300800000CF93DF9300D0CDB7DEB70E946B01A1
S113009041E066E081E00E9419010E9433010E9460
S11300A0A9001A82198287E00E94350187E00E9424
S11300B05A01CE0101960E944D010E940201182F9F
S11300C067E080E00E94C400812F90E00E94D0008D
S11300D0EACFCF93C82F60E088E10E944A026C2FD8
S11300E082E00E94C50261E089E10E944A028FEC2D
S11300F097E00197F1F700C0000060E089E10E94F9
S11301004A028FEC97E00197F1F700C00000CF910D
S11301100895CF93C82F61E088E10E944A026C2FB2
S113012082E00E94C50261E089E10E944A028FECEC
S113013097E00197F1F700C0000060E089E10E94B8
S11301404A028FEC97E00197F1F700C00000CF91CD
S113015008952FE788E391E0215080409040E1F733
S113016000C0000088E30E9469008CE00E946900DE
S113017081E00E9469008FEC97E00197F1F700C0DD
S1130180000086E00C946900811103C0862F80680A
S113019004C0813021F4862F806C0C94690008958A
S11301A00F931F93CF93DF938C0168EE73E00E944B
S11301B0E902CB01CAE0D0E0BE010E94E902805D01
S11301C00E948900C80164E670E00E94E902CB0144
S11301D0BE010E94E902805D0E948900C801BE013F
S11301E00E94E902182FCB01BE010E94E902805D42
S11301F00E94890080E3810FDF91CF911F910F91BD
S11302000C94890087E00E9442019C01A4E6B0E0BE
S11302100E94FD02DC01CB012AE0B695A7959795D3
S113022087952A95D1F708950E94410080E090E0D7
S11302300895813041F020F0833039F43F9A04C0AE
S11302403F983E9802C03F983E9A86B1887F677077
S1130250682B66B9442319F0413019F008953D9A8A
S113026008953D980895379A0895909160009130CB
S113027041F497B1907E8F71892B87B9369A109289
S11302806000089597B1907E8F71892B87B9369A53
S11302903699FECF84B195B10895369909C024B139
S11302A035B1FC013183208381E08093600008959F
S11302B080E008950E9442019C01A8E8B3E10E94F5
S11302C0FD02DC01CB012AE0B695A79597958795A9
S11302D02A95D1F70895CF93DF93E1E6F0E020EF7C
S11302E0A8EE38EF40E050E081E090E071917111A8
S11302F03CC0483078F4BAB3EC01042E02C0CC0FF1
S1130300DD1F0A94E2F7BE017B2F762B7ABB7BB309
S113031060953EC0383068F4B7B3BC01032E01C009
S1130320660F0A94EAF77B2F762B77BB78B3609538
S11303303FC0283068F4B4B3BC01022E01C0660F7C
S11303400A94EAF77B2F762B74BB75B3609540C093
S1130350B1B3BC010A2E01C0660F0A94EAF77B2FE1
S1130360762B71BB72B3609541C0713009F040C007
S1130370483080F4BAB3EC01042E02C0CC0FDD1F68
S11303800A94E2F7BE0160957B2F76237ABB7BB398
S1130390672342C0383070F4B7B3BC01032E01C0E8
S11303A0660F0A94EAF760957B2F762377BB78B3C0
S11303B0672343C0283070F4B4B3BC01022E01C0DB
S11303C0660F0A94EAF760957B2F762374BB75B3A6
S11303D0672344C0B1B3BC010A2E01C0660F0A945E
S11303E0EAF760957B2F762371BB72B3672345C010
S11303F0723009F043C0483088F4BAB3EC01042EDB
S113040002C0CC0FDD1F0A94E2F7BE017C2F709569
S11304107B237ABB7BB3672B6BBB30C0383078F45B
S1130420B7B3BC01032E01C0660F0A94EAF7762F16
S113043070957B2377BB78B3672B68BB1FC02830CC
S113044078F4B4B3BC01022E01C0660F0A94EAF733
S1130450762F70957B2374BB75B3672B65BB0EC079
S1130460B1B3BC010A2E01C0660F0A94EAF7762FD5
S113047070957B2371BB72B3672B62BB4F5F5F4F79
S11304803F5FAF5F2F5F4032510509F02FCFDF91FF
S1130490CF91089561113CC0883068F44BB321E0DA
S11304A030E0B90102C0660F771F8A95E2F7CB01ED
S11304B0809584233CC038EF380F383050F428B38B
S11304C081E090E001C0880F3A95EAF78095822395
S11304D03CC030EF380F383050F425B381E090E061
S11304E001C0880F3A95EAF7809582233CC0885171
S11304F0883008F049C042B321E030E0B90102C0BD
S1130500660F771F8A95E2F7CB01809584233BC061
S11305106130D1F5883068F44BB321E030E0B901A3
S113052002C0660F771F8A95E2F7CB01842B8BBB41
S1130530089528EF280F283050F438B381E090E074
S113054001C0880F2A95EAF7832B88BB089520EF12
S1130550280F283050F435B381E090E001C0880FB3
S11305602A95EAF7832B85BB08958851883060F477
S113057042B321E030E0B90102C0660F771F8A95CB
S1130580E2F7CB01842B82BB0895813041F028F03F
S1130590823039F0833039F008956BBB089568BB1D
S11305A0089565BB089562BB0895AA1BBB1B51E166
S11305B007C0AA1FBB1FA617B70710F0A61BB70BCF
S11305C0881F991F5A95A9F780959095BC01CD0174
S11305D0089597FB072E16F4009407D077FD09D0F1
S11305E00E94D50207FC05D03EF4909581959F4F5B
S11305F00895709561957F4F0895A29FB001B39FB0
S1130600C001A39F700D811D1124911DB29F700D17
S10F0610811D1124911D0895F894FFCF62
S113061C01010101000000000100000000000000C5
S113062C00000000000000000000000000000000BA
S105063C0000B8
S9030000FC
