:100000000C942A000C943F000C943F000C943F0089
:100010000C943F000C943F000C943F000C943F0064
:100020000C943F000C943F000C943F000C943F0054
:100030000C943F000C943F000C943F000C943F0044
:100040000C943F000C943F000C943F000C943F0034
:100050000C943F0011241FBECFE5D8E0DEBFCDBF1A
:1000600010E0A0E6B0E0E8ECF7E002C005900D92E9
:10007000A438B107D9F70E9477010C94E2030C94DD
:1000800000000E94B4010E94B60041E066E081E0F9
:100090000E947C010E94960180E690E00E94DD00B3
:1000A00060E081E00E94D10080E00E949801BC01E4
:1000B000990F880B990B0E9456030E94E90087E074
:1000C0000E949801EC0167E081E00E94D100CE011E
:1000D0000E94450187E00E94A301EC0167E080E0F7
:1000E0000E94D100CE010E944501E9CFCF93C82FD5
:1000F00060E088E10E9493026C2F82E00E940E0370
:1001000061E089E10E9493028FEC97E00197F1F79B
:1001100000C0000060E089E10E9493028FEC97E04C
:100120000197F1F700C00000CF910895CF93C82F39
:1001300061E088E10E9493026C2F82E00E940E032E
:1001400061E089E10E9493028FEC97E00197F1F75B
:1001500000C0000060E089E10E9493028FEC97E00C
:100160000197F1F700C00000CF9108952FE788E3D1
:1001700091E0215080409040E1F700C0000088E30A
:100180000E9476008CE00E94760081E00E9476005A
:100190008FEC97E00197F1F700C0000086E00C9427
:1001A0007600811103C0862F806804C0813021F45D
:1001B000862F806C0C9476000895CF93DF93EC012A
:1001C0008991882319F00E949600FACFDF91CF9190
:1001D00008950F931F93CF93DF93CDB7DEB7649746
:1001E0000FB6F894DEBF0FBECDBF0E941E03DB0129
:1001F0009E012F5F3F4F109721F480E3898341E0F8
:100200001AC077FF08C04DE24983AA27BB27A61B67
:10021000B70B41E001C040E00AE010E0F901E40F53
:10022000F11DCD01B8010E94CE03805D80834F5F38
:10023000DB01109799F7F901E40FF11D1082F90124
:10024000D901CD01821B930B4D914111FACF992712
:10025000D901A80FB91F96958795820F931FE817AC
:10026000F90729F040815E9151934C93F8CFC90171
:100270000E94DD0064960FB6F894DEBF0FBECDBFBE
:10028000DF91CF911F910F9108950F931F93CF93FB
:10029000DF938C0168EE73E00E94CE03CB01CAE0CD
:1002A000D0E0BE010E94CE03805D0E949600C8018E
:1002B00064E670E00E94CE03CB01BE010E94CE0333
:1002C000805D0E949600C801BE010E94CE03182FD7
:1002D000CB01BE010E94CE03805D0E94960080E3A8
:1002E000810FDF91CF911F910F910C9496000E9486
:1002F000410080E090E00895813041F020F08330AB
:1003000039F43F9A04C03F983E9802C03F983E9A05
:1003100086B1887F6770682B66B9442319F0413035
:1003200019F008953D9A08953D980895379A0895D3
:1003300097B1907E8F71892B87B9369A3699FECF07
:1003400084B195B108950E94980128E833E1AC0189
:10035000429FC001439F900D529F900D1124892F01
:100360008695869590E00895CF93DF93E4E6F0E0DC
:1003700020EFA8EE38EF40E050E081E090E071918E
:1003800071113CC0483078F4BAB3EC01042E02C0BD
:10039000CC0FDD1F0A94E2F7BE017B2F762B7ABBD0
:1003A0007BB360953EC0383068F4B7B3BC01032E10
:1003B00001C0660F0A94EAF77B2F762B77BB78B3E0
:1003C00060953FC0283068F4B4B3BC01022E01C070
:1003D000660F0A94EAF77B2F762B74BB75B3609592
:1003E00040C0B1B3BC010A2E01C0660F0A94EAF7FF
:1003F0007B2F762B71BB72B3609541C0713009F0D1
:1004000040C0483080F4BAB3EC01042E02C0CC0FD7
:10041000DD1F0A94E2F7BE0160957B2F76237ABB3D
:100420007BB3672342C0383070F4B7B3BC01032EEE
:1004300001C0660F0A94EAF760957B2F762377BB9D
:1004400078B3672343C0283070F4B4B3BC01022EE4
:1004500001C0660F0A94EAF760957B2F762374BB80
:1004600075B3672344C0B1B3BC010A2E01C0660F47
:100470000A94EAF760957B2F762371BB72B36723EA
:1004800045C0723009F043C0483088F4BAB3EC017B
:10049000042E02C0CC0FDD1F0A94E2F7BE017C2FB0
:1004A00070957B237ABB7BB3672B6BBB30C0383036
:1004B00078F4B7B3BC01032E01C0660F0A94EAF7C3
:1004C000762F70957B2377BB78B3672B68BB1FC0F3
:1004D000283078F4B4B3BC01022E01C0660F0A9430
:1004E000EAF7762F70957B2374BB75B3672B65BBDA
:1004F0000EC0B1B3BC010A2E01C0660F0A94EAF720
:10050000762F70957B2371BB72B3672B62BB4F5FF5
:100510005F4F3F5FAF5F2F5F4032510509F02FCF34
:10052000DF91CF91089561113CC0883068F44BB3DE
:1005300021E030E0B90102C0660F771F8A95E2F72B
:10054000CB01809584233CC038EF380F383050F40D
:1005500028B381E090E001C0880F3A95EAF78095D2
:1005600082233CC030EF380F383050F425B381E09F
:1005700090E001C0880F3A95EAF7809582233CC04D
:100580008851883008F049C042B321E030E0B90119
:1005900002C0660F771F8A95E2F7CB01809584230E
:1005A0003BC06130D1F5883068F44BB321E030E0D6
:1005B000B90102C0660F771F8A95E2F7CB01842B41
:1005C0008BBB089528EF280F283050F438B381E012
:1005D00090E001C0880F2A95EAF7832B88BB089525
:1005E00020EF280F283050F435B381E090E001C0AF
:1005F000880F2A95EAF7832B85BB089588518830A8
:1006000060F442B321E030E0B90102C0660F771F09
:100610008A95E2F7CB01842B82BB0895813041F0AB
:1006200028F0823039F0833039F008956BBB08959B
:1006300068BB089565BB089562BB08950E942503B9
:100640006894B1110C94B40308950E94990388F042
:100650009F5798F0B92F9927B751B0F0E1F0660F86
:10066000771F881F991F1AF0BA95C9F714C0B130C7
:1006700091F00E94B303B1E008950C94B303672F87
:10068000782F8827B85F39F0B93FCCF386957795F6
:100690006795B395D9F73EF49095809570956195DF
:1006A0007F4F8F4F9F4F0895E89409C097FB3EF40A
:1006B00090958095709561957F4F8F4F9F4F9923AF
:1006C000A9F0F92F96E9BB279395F695879577952D
:1006D0006795B795F111F8CFFAF4BB0F11F460FFED
:1006E0001BC06F5F7F4F8F4F9F4F16C0882311F045
:1006F00096E911C0772321F09EE8872F762F05C059
:10070000662371F096E8862F70E060E02AF09A95F3
:10071000660F771F881FDAF7880F9695879597F9E8
:10072000089557FD9058440F551F59F05F3F71F0E1
:100730004795880F97FB991F61F09F3F79F0879548
:100740000895121613061406551FF2CF4695F1DFD1
:1007500008C0161617061806991FF1CF8695710561
:10076000610508940895E894BB2766277727CB0195
:1007700097F90895AA1BBB1B51E107C0AA1FBB1F15
:10078000A617B70710F0A61BB70B881F991F5A951D
:10079000A9F780959095BC01CD01089597FB072E90
:1007A00016F4009407D077FD09D00E94BA0307FC25
:1007B00005D03EF4909581959F4F08957095619571
:0807C0007F4F0895F894FFCF6C
:1007C80061646300010000000000000100000000F7
:1007D8000000000000000000000000000000000011
:0407E800000000000D
:00000001FF
