:100000000C9438000C944D000C944D000C944D0051
:100010000C944D000C944D000C944D000C944D002C
:100020000C944D000C944D000C944D000C944D001C
:100030000C944D000C944D000C944D000C944D000C
:100040000C944D000C944D000C944D000C944D00FC
:100050000C944D00B101B901C101C8019901A10180
:10006000A901C801810189019101C801C8017A0172
:1000700011241FBECFE5D8E0DEBFCDBF10E0A0E663
:10008000B0E0E0E8F7E002C005900D92A039B107BA
:10009000D9F70E9410020C94BE030C9400000E9439
:1000A0001502D0E0C0E00E9461018436910510F491
:1000B000D82FC92F8D2F9C2F0E94D201F4CF60E042
:1000C00080E10E94F40261E081E10E94F40261E0BB
:1000D00082E10E94F40261E083E10E94F40284E183
:1000E0000E946F03811107C084E10E946F0388237F
:1000F000D9F381E0089585E10E946F03811107C063
:1001000085E10E946F038823D9F382E0089586E198
:100110000E946F03811107C086E10E946F0388234C
:10012000D9F383E0089587E10E946F03811107C02E
:1001300087E10E946F038823D9F384E0089561E08A
:1001400080E10E94F40260E081E10E94F40261E03B
:1001500082E10E94F40261E083E10E94F40284E102
:100160000E946F03811107C084E10E946F038823FE
:10017000D9F385E0089585E10E946F03811107C0DE
:1001800085E10E946F038823D9F386E0089586E114
:100190000E946F03811107C086E10E946F038823CC
:1001A000D9F387E0089587E10E946F03811107C0AA
:1001B00087E10E946F038823D9F388E0089561E006
:1001C00080E10E94F40261E081E10E94F40260E0BB
:1001D00082E10E94F40261E083E10E94F40284E182
:1001E0000E946F03811107C084E10E946F0388237E
:1001F000D9F389E0089585E10E946F03811107C05A
:1002000085E10E946F038823D9F38AE0089586E18F
:100210000E946F03811107C086E10E946F0388234B
:10022000D9F38BE0089587E10E946F03811107C025
:1002300087E10E946F038823D9F38CE0089561E081
:1002400080E10E94F40261E081E10E94F40261E039
:1002500082E10E94F40260E083E10E94F40284E102
:100260000E946F03811107C084E10E946F038823FD
:10027000D9F38DE0089585E10E946F03811107C0D5
:1002800085E10E946F038823D9F38EE0089586E10B
:100290000E946F03811107C086E10E946F038823CB
:1002A000D9F38FE0089587E10E946F03811107C0A1
:1002B00087E10E946F038823D9F380E1089581E1EB
:1002C00008951F93CF93DF930E945F00813109F45B
:1002D00062C0C0E0D0E01AE08F3009F45EC090E068
:1002E000FC013197EE30F10508F052C0E65DFF4F9A
:1002F0000C94B803CE01189FE001199FD00D112472
:1003000047C01C9FC0011D9F900D1124EC01219638
:100310003FC01C9FC0011D9F900D1124EC0122962F
:1003200037C01C9FC0011D9F900D1124EC01239626
:100330002FC01C9FC0011D9F900D1124EC0124961D
:1003400027C01C9FC0011D9F900D1124EC01259614
:100350001FC01C9FC0011D9F900D1124EC0126960B
:1003600017C01C9FC0011D9F900D1124EC01279602
:100370000FC01C9FC0011D9F900D1124EC012896F9
:1003800007C01C9FC0011D9F900D1124EC012996F0
:100390000E945F00A1CFCFEFDFEFCE01DF91CF91C1
:1003A0001F910895CF93DF9384369105B0F5EC014A
:1003B00061E088E00E94F40260E089E00E94F402BB
:1003C000CE016AE070E00E94A403EB01FC01E05A58
:1003D000FF4F608180E00E9494038FEC97E00197CB
:1003E000F1F700C0000061E089E00E94F40260E0E3
:1003F00088E00E94F402C05ADF4F688180E00E94CA
:1004000094038FEC97E00197F1F700C0000061E0E2
:1004100088E0DF91CF910C94F402DF91CF910895A1
:100420000E944F0080E090E00895CF93DF93E0E7D3
:10043000F0E020EFA8EE38EF40E050E081E090E0FF
:10044000719171113CC0483078F4BAB3EC01042EBC
:1004500002C0CC0FDD1F0A94E2F7BE017B2F762B82
:100460007ABB7BB360953EC0383068F4B7B3BC014B
:10047000032E01C0660F0A94EAF77B2F762B77BB19
:1004800078B360953FC0283068F4B4B3BC01022E45
:1004900001C0660F0A94EAF77B2F762B74BB75B305
:1004A000609540C0B1B3BC010A2E01C0660F0A942A
:1004B000EAF77B2F762B71BB72B3609541C0713028
:1004C00009F040C0483080F4BAB3EC01042E02C0F9
:1004D000CC0FDD1F0A94E2F7BE0160957B2F7623D7
:1004E0007ABB7BB3672342C0383070F4B7B3BC012A
:1004F000032E01C0660F0A94EAF760957B2F7623DE
:1005000077BB78B3672343C0283070F4B4B3BC0121
:10051000022E01C0660F0A94EAF760957B2F7623BE
:1005200074BB75B3672344C0B1B3BC010A2E01C0CC
:10053000660F0A94EAF760957B2F762371BB72B33E
:10054000672345C0723009F043C0483088F4BAB31D
:10055000EC01042E02C0CC0FDD1F0A94E2F7BE01AD
:100560007C2F70957B237ABB7BB3672B6BBB30C032
:10057000383078F4B7B3BC01032E01C0660F0A947B
:10058000EAF7762F70957B2377BB78B3672B68BB30
:100590001FC0283078F4B4B3BC01022E01C0660F2E
:1005A0000A94EAF7762F70957B2374BB75B3672B9B
:1005B00065BB0EC0B1B3BC010A2E01C0660F0A9420
:1005C000EAF7762F70957B2371BB72B3672B62BB02
:1005D0004F5F5F4F3F5FAF5F2F5F4032510509F0C4
:1005E0002FCFDF91CF91089561113CC0883068F41E
:1005F0004BB321E030E0B90102C0660F771F8A9546
:10060000E2F7CB01809584233CC038EF380F3830B7
:1006100050F428B381E090E001C0880F3A95EAF7E2
:10062000809582233CC030EF380F383050F425B32A
:1006300081E090E001C0880F3A95EAF78095822327
:100640003CC08851883008F049C042B321E030E016
:10065000B90102C0660F771F8A95E2F7CB0180953A
:1006600084233BC06130D1F5883068F44BB321E07E
:1006700030E0B90102C0660F771F8A95E2F7CB011F
:10068000842B8BBB089528EF280F283050F438B303
:1006900081E090E001C0880F2A95EAF7832B88BBA0
:1006A000089520EF280F283050F435B381E090E012
:1006B00001C0880F2A95EAF7832B85BB08958851DE
:1006C000883060F442B321E030E0B90102C0660F27
:1006D000771F8A95E2F7CB01842B82BB0895282FE0
:1006E000883010F499B316C038EF380F383010F452
:1006F00086B305C030EF380F383040F483B390E054
:1007000002C0959587953A95E2F70BC0285128309D
:1007100050F490B3892F90E002C0959587952A9563
:10072000E2F7817008950895813041F028F0823019
:1007300039F0833039F008956BBB089568BB089594
:1007400065BB089562BB0895AA1BBB1B51E107C09E
:10075000AA1FBB1FA617B70710F0A61BB70B881F51
:10076000991F5A95A9F780959095BC01CD010895E0
:10077000EE0FFF1F0590F491E02D0994F894FFCF40
:100780003F065B4F666D7D077F6F77FF393F79715D
:100790000000000000000000000000000000000059
:1007A0000000000002020202000000000000000041
:00000001FF
