S010000061746D65676133322E7372656340
S11300000C943A000C947D010C94A6010C94CF013D
S11300100C9457000C9457000C94C1030C946F0378
S11300200C9498030C9446030C9421020C94F8014C
S11300300C9457000C9457000C9457000C945700E0
S11300400C9457000C9475000C9457000C945700B2
S11300500C9457007D028002830289028C0295026F
S11300609B029E02A102A702B002BC02C202DD02F0
S1130070C502D10211241FBECFE5D8E0DEBFCDBF3B
S113008010E0A0E6B0E0E4EEF7E002C005900D92C7
S1130090A038B107D9F720E0A0E8B0E001C01D9274
S11300A0A639B207E1F70E9470000C94F0030C9497
S11300B04A020E949E0062E08EE00E94730283E086
S11300C00E94100382E00E942B0388EE93E097BD08
S11300D086BD83E690E09BBD8ABD99BD88BD089529
S11300E00E94590080E090E008951F920F920FB68D
S11300F00F9211242F933F934F935F936F937F93AA
S11301008F939F93AF93BF93EF93FF93E0918000FE
S1130110F0918100309709F00995FF91EF91BF911B
S1130120AF919F918F917F916F915F914F913F918B
S11301302F910F900FBE0F901F901895CF93DF93C0
S1130140E0E6F0E020EFA8EE38EF40E050E081E098
S113015090E0719171113CC0483078F4BAB3EC016D
S1130160042E02C0CC0FDD1F0A94E2F7BE017B2FE0
S1130170762B7ABB7BB360953EC0383068F4B7B356
S1130180BC01032E01C0660F0A94EAF77B2F762B7D
S113019077BB78B360953FC0283068F4B4B3BC0132
S11301A0022E01C0660F0A94EAF77B2F762B74BBEC
S11301B075B3609540C0B1B3BC010A2E01C0660F8F
S11301C00A94EAF77B2F762B71BB72B3609541C01A
S11301D0713009F040C0483080F4BAB3EC01042E09
S11301E002C0CC0FDD1F0A94E2F7BE0160957B2F9D
S11301F076237ABB7BB3672342C0383070F4B7B33D
S1130200BC01032E01C0660F0A94EAF760957B2FA8
S1130210762377BB78B3672343C0283070F4B4B334
S1130220BC01022E01C0660F0A94EAF760957B2F89
S1130230762374BB75B3672344C0B1B3BC010A2EE3
S113024001C0660F0A94EAF760957B2F762371BB91
S113025072B3672345C0723009F043C0483088F454
S1130260BAB3EC01042E02C0CC0FDD1F0A94E2F7EE
S1130270BE017C2F70957B237ABB7BB3672B6BBB52
S113028030C0383078F4B7B3BC01032E01C0660F18
S11302900A94EAF7762F70957B2377BB78B3672BA4
S11302A068BB1FC0283078F4B4B3BC01022E01C06F
S11302B0660F0A94EAF7762F70957B2374BB75B3A7
S11302C0672B65BB0EC0B1B3BC010A2E01C0660F1B
S11302D00A94EAF7762F70957B2371BB72B3672B70
S11302E062BB4F5F5F4F3F5FAF5F2F5F403251058F
S11302F009F02FCFDF91CF9108951F920F920FB67F
S11303000F9211242F933F934F935F936F937F9397
S11303108F939F93AF93BF93EF93FF93E0918600E6
S1130320F0918700309709F00995FF91EF91BF9103
S1130330AF919F918F917F916F915F914F913F9179
S11303402F910F900FBE0F901F9018951F920F9230
S11303500FB60F9211242F933F934F935F936F9394
S11303607F938F939F93AF93BF93EF93FF93E0910A
S11303708400F0918500309709F00995FF91EF9181
S1130380BF91AF919F918F917F916F915F914F91A9
S11303903F912F910F900FBE0F901F9018951F92B1
S11303A00F920FB60F9211242F933F934F935F93A5
S11303B06F937F938F939F93AF93BF93EF93FF9329
S11303C0E0918200F0918300309709F00995FF9144
S11303D0EF91BF91AF919F918F917F916F915F91B9
S11303E04F913F912F910F900FBE0F901F90189532
S11303F01F920F920FB60F9211242F933F934F9396
S11304005F936F937F938F939F93AF93BF93EF9378
S1130410FF93E0918C00F0918D00309709F00995DD
S1130420FF91EF91BF91AF919F918F917F916F91C8
S11304305F914F913F912F910F900FBE0F901F909E
S113044018951F920F920FB60F9211242F933F937A
S11304504F935F936F937F938F939F93AF93BF93C8
S1130460EF93FF93E0918A00F0918B00309709F0AD
S11304700995FF91EF91BF91AF919F918F917F91DA
S11304806F915F914F913F912F910F900FBE0F90FD
S11304901F9018951F920F920FB60F9211242F934D
S11304A03F934F935F936F937F938F939F93AF93F8
S11304B0BF93EF93FF93E0918800F0918900309708
S11304C009F00995FF91EF91BF91AF919F918F91A1
S11304D07F916F915F914F913F912F910F900FBE3C
S11304E00F901F90189590E08031910508F065C039
S11304F0FC01E65DFF4F0C94EA038EB58F7E23C0AA
S11305008EB58F7E26C08EB58F7E8EBD8EB5877FCD
S113051041C08EB58F7E32C08EB58F7E8EBD8EB5B6
S113052088608EBD8FB58D7F38C08EB58F7E8EBDB1
S11305308EB5886011C08EB58F7E29C08EB58F7E32
S113054032C08EB580618EBD8EB5877FEACF8EB501
S113055080618EBD8EB5877F8EBD8FB58D7F29C09E
S11305608EB580618EBD8EB5877F8EBD8FB582605E
S11305708FBD8FB58E7F8FBD8EB580618EBD8EB5DC
S1130580877F14C08EB58061C9CF8EB580618EBD62
S11305908EB588608EBD8FB582608FBD8FB58E7F1E
S11305A00BC08EB580618EBD8EB588608EBD8FB553
S11305B082608FBD8FB581608FBD623091F028F469
S11305C0662349F0613051F008956430B1F078F059
S11305D06530E1F008958EB58B7F11C08EB58B7FA9
S11305E017C08EB58B7F8EBD8EB582600BC08EB565
S11305F08B7F8EBD8EB582600EC08EB584608EBD3D
S11306008EB58D7F8EBD8EB58E7F08C08EB584600D
S11306108EBD8EB58D7F8EBD8EB581608EBD0895E5
S1130620813049F028F0823049F0833069F0089530
S11306308FB58F7705C08FB58F7708C08FB5806869
S11306408FBD8FB58F7B05C08FB580688FBD8FB58B
S113065080648FBD0895813049F028F0823049F0DC
S1130660833069F008958FB58F7D05C08FB58F7D78
S113067008C08FB580628FBD8FB58F7E05C08FB5E2
S113068080628FBD8FB580618FBD08951F920F92D8
S11306900FB60F9211242F933F934F935F936F9351
S11306A07F938F939F93AF93BF93EF93FF93E091C7
S11306B09400F0919500309709F00995FF91EF911E
S11306C0BF91AF919F918F917F916F915F914F9166
S11306D03F912F910F900FBE0F901F9018951F926E
S11306E00F920FB60F9211242F933F934F935F9362
S11306F06F937F938F939F93AF93BF93EF93FF93E6
S1130700E0919200F0919300309709F00995FF91E0
S1130710EF91BF91AF919F918F917F916F915F9175
S11307204F913F912F910F900FBE0F901F901895EE
S11307301F920F920FB60F9211242F933F934F9352
S11307405F936F937F938F939F93AF93BF93EF9335
S1130750FF93E0919000F0919100309709F0099592
S1130760FF91EF91BF91AF919F918F917F916F9185
S11307705F914F913F912F910F900FBE0F901F905B
S113078018951F920F920FB60F9211242F933F9337
S11307904F935F936F937F938F939F93AF93BF9385
S11307A0EF93FF93E0918E00F0918F00309709F062
S11307B00995FF91EF91BF91AF919F918F917F9197
S11307C06F915F914F913F912F910F900FBE0F90BA
S11307D01F901895EE0FFF1F0590F491E02D0994DA
S10707E0F894FFCFB7
S11307E401010100000000010000020000000000FB
S11307F400000000000000000000020100000000EE
S9030000FC
