S010000061746D65676133322E7372656340
S11300000C942A000C943F000C943F000C943F0085
S11300100C943F000C943F000C943F000C943F0060
S11300200C943F000C943F000C943F000C943F0050
S11300300C943F000C943F000C943F000C943F0040
S11300400C943F000C943F000C943F000C943F0030
S11300500C943F0011241FBECFE5D8E0DEBFCDBF16
S113006010E0A0E6B0E0EAEAF3E002C005900D92E9
S1130070A039B107D9F70E94CF000C94D3010C9496
S113008000000E94D4008EE00E9479002FEF81E1ED
S11300909AE7215080409040E1F700C0000082E0E0
S11300A00E94C7000E94A80087EE93E00E9494007B
S11300B02FEF81E19AE7215080409040E1F700C0A2
S11300C000008FE00E9470002FEF81E19AE7215039
S11300D080409040E1F700C000000E948200D3CF2E
S11300E08A3030F4E82FF0E0E05AFF4F808182BB81
S11300F00895803130F4E82FF0E0E05AFF4F80811A
S113010082BB0895E0E6F0E0819182BB2FEF84E3A7
S11301109CE0215080409040E1F700C0000020E0C6
S1130120EA36F20789F708952AE030E0B9010E941F
S1130130BF01FC01E05AFF4F808182BBCB01B901B2
S11301400E94BF01FC01E05AFF4F808185BB0895E6
S113015020E03AE0822F632F0E94B301E92FF0E000
S1130160E05AFF4F908192BBE82FF0E0E05AFF4F36
S1130170808185BB4FEF84E39CE0415080409040F8
S1130180E1F700C000002F5F243621F708958A307C
S113019028F49BB39F60806F89238BBB08950E94D2
S11301A0410080E090E00895CF93DF93E0E7F0E032
S11301B020EFA8EE38EF40E050E081E090E071914C
S11301C071113CC0483078F4BAB3EC01042E02C07B
S11301D0CC0FDD1F0A94E2F7BE017B2F762B7ABB8E
S11301E07BB360953EC0383068F4B7B3BC01032ECE
S11301F001C0660F0A94EAF77B2F762B77BB78B39E
S113020060953FC0283068F4B4B3BC01022E01C02D
S1130210660F0A94EAF77B2F762B74BB75B360954F
S113022040C0B1B3BC010A2E01C0660F0A94EAF7BC
S11302307B2F762B71BB72B3609541C0713009F08E
S113024040C0483080F4BAB3EC01042E02C0CC0F95
S1130250DD1F0A94E2F7BE0160957B2F76237ABBFB
S11302607BB3672342C0383070F4B7B3BC01032EAC
S113027001C0660F0A94EAF760957B2F762377BB5B
S113028078B3672343C0283070F4B4B3BC01022EA2
S113029001C0660F0A94EAF760957B2F762374BB3E
S11302A075B3672344C0B1B3BC010A2E01C0660F05
S11302B00A94EAF760957B2F762371BB72B36723A8
S11302C045C0723009F043C0483088F4BAB3EC0139
S11302D0042E02C0CC0FDD1F0A94E2F7BE017C2F6E
S11302E070957B237ABB7BB3672B6BBB30C03830F4
S11302F078F4B7B3BC01032E01C0660F0A94EAF781
S1130300762F70957B2377BB78B3672B68BB1FC0B0
S1130310283078F4B4B3BC01022E01C0660F0A94ED
S1130320EAF7762F70957B2374BB75B3672B65BB97
S11303300EC0B1B3BC010A2E01C0660F0A94EAF7DD
S1130340762F70957B2371BB72B3672B62BB4F5FB3
S11303505F4F3F5FAF5F2F5F4032510509F02FCFF2
S1130360DF91CF910895991B79E004C0991F9617E6
S113037008F0961B881F7A95C9F780950895AA1BE3
S1130380BB1B51E107C0AA1FBB1FA617B70710F07C
S1130390A61BB70B881F991F5A95A9F780959095AE
S10D03A0BC01CD010895F894FFCFCD
S11303AA3F065B4F666D7D077F6F77FF393F797133
S11303BA000000000000000000000000000000002F
S11303CA000000000000000000000000000000001F
S9030000FC
