:100000000C942A000C943F000C943F000C943F0089
:100010000C943F000C943F000C943F000C943F0064
:100020000C943F000C943F000C943F000C943F0054
:100030000C943F000C943F000C943F000C943F0044
:100040000C943F000C943F000C943F000C943F0034
:100050000C943F0011241FBECFE5D8E0DEBFCDBF1A
:1000600010E0A0E6B0E0E2E2F4E002C005900D92FC
:10007000A038B107D9F70E94B0000C940F020C947D
:1000800000000E94B50061E088E00E9494012FEF1B
:1000900084E39CE0215080409040E1F700C00000E4
:1000A00060E088E00E9494012FEF84E39CE02150FF
:1000B00080409040E1F700C0000061E080E10E94D4
:1000C000940161E081E10E94940160E081E00E947E
:1000D000940161E080E00E94940161E089E00E9467
:1000E00094010E9498002FEF81E19AE7215080400F
:1000F0009040E1F700C0000060E080E10E949401C0
:1001000060E081E10E94940160E080E00E9494013F
:1001100061E081E00E9494010E94A4002FEF81E140
:100120009AE7215080409040E1F700C00000ABCF3B
:1001300061E084E10E94940161E085E10E94940104
:1001400060E086E10C94940161E084E10E949401F6
:1001500060E085E10E94940161E086E10C949401E5
:100160000E94410080E090E00895CF93DF93E0E6A5
:10017000F0E020EFA8EE38EF40E050E081E090E0C2
:10018000719171113CC0483078F4BAB3EC01042E7F
:1001900002C0CC0FDD1F0A94E2F7BE017B2F762B45
:1001A0007ABB7BB360953EC0383068F4B7B3BC010E
:1001B000032E01C0660F0A94EAF77B2F762B77BBDC
:1001C00078B360953FC0283068F4B4B3BC01022E08
:1001D00001C0660F0A94EAF77B2F762B74BB75B3C8
:1001E000609540C0B1B3BC010A2E01C0660F0A94ED
:1001F000EAF77B2F762B71BB72B3609541C07130EB
:1002000009F040C0483080F4BAB3EC01042E02C0BB
:10021000CC0FDD1F0A94E2F7BE0160957B2F762399
:100220007ABB7BB3672342C0383070F4B7B3BC01EC
:10023000032E01C0660F0A94EAF760957B2F7623A0
:1002400077BB78B3672343C0283070F4B4B3BC01E4
:10025000022E01C0660F0A94EAF760957B2F762381
:1002600074BB75B3672344C0B1B3BC010A2E01C08F
:10027000660F0A94EAF760957B2F762371BB72B301
:10028000672345C0723009F043C0483088F4BAB3E0
:10029000EC01042E02C0CC0FDD1F0A94E2F7BE0170
:1002A0007C2F70957B237ABB7BB3672B6BBB30C0F5
:1002B000383078F4B7B3BC01032E01C0660F0A943E
:1002C000EAF7762F70957B2377BB78B3672B68BBF3
:1002D0001FC0283078F4B4B3BC01022E01C0660FF1
:1002E0000A94EAF7762F70957B2374BB75B3672B5E
:1002F00065BB0EC0B1B3BC010A2E01C0660F0A94E3
:10030000EAF7762F70957B2371BB72B3672B62BBC4
:100310004F5F5F4F3F5FAF5F2F5F4032510509F086
:100320002FCFDF91CF91089561113CC0883068F4E0
:100330004BB321E030E0B90102C0660F771F8A9508
:10034000E2F7CB01809584233CC038EF380F38307A
:1003500050F428B381E090E001C0880F3A95EAF7A5
:10036000809582233CC030EF380F383050F425B3ED
:1003700081E090E001C0880F3A95EAF780958223EA
:100380003CC08851883008F049C042B321E030E0D9
:10039000B90102C0660F771F8A95E2F7CB018095FD
:1003A00084233BC06130D1F5883068F44BB321E041
:1003B00030E0B90102C0660F771F8A95E2F7CB01E2
:1003C000842B8BBB089528EF280F283050F438B3C6
:1003D00081E090E001C0880F2A95EAF7832B88BB63
:1003E000089520EF280F283050F435B381E090E0D5
:1003F00001C0880F2A95EAF7832B85BB08958851A1
:10040000883060F442B321E030E0B90102C0660FE9
:10041000771F8A95E2F7CB01842B82BB0895F8946D
:02042000FFCF0C
:1004220000000000000000000000000000000000CA
:1004320000000000000000000000000000000000BA
:00000001FF
