S010000061746D65676133322E7372656340
S11300000C942A000C943F000C9471000C943F0053
S11300100C943F000C943F000C943F000C943F0060
S11300200C943F000C943F000C943F000C943F0050
S11300300C943F000C943F000C943F000C943F0040
S11300400C943F000C943F000C943F000C943F0030
S11300500C943F0011241FBECFE5D8E0DEBFCDBF16
S113006010E0A0E6B0E0ECE7F8E002C005900D92E5
S1130070A038B107D9F70E9465010C943C040C9494
S113008000000E946A0182E00E940F0382E00E9445
S1130090330380E00E9457030E94D60078940E94A4
S11300A066030E946C030E947203C12CD12C76015A
S11300B061E080E00E94F100C701B6010E94AE0336
S11300C00E9409012FEF84E39CE02150804090407E
S11300D0E1F700C000002FEFC21AD20AE20AF20AC6
S11300E0E7CF1F920F920FB60F9211242F933F93D5
S11300F04F935F936F937F938F939F93AF93BF932C
S1130100EF93FF9388E00E94C402FF91EF91BF91A7
S1130110AF919F918F917F916F915F914F913F919B
S11301202F910F900FBE0F901F901895CF93C82F4B
S113013060E088E10E9449026C2F82E00E94FF0285
S113014061E089E10E9449028FEC97E00197F1F7A1
S113015000C0000060E089E10E9449028FEC97E052
S11301600197F1F700C00000CF910895CF93C82FF5
S113017061E088E10E9449026C2F82E00E94FF0244
S113018061E089E10E9449028FEC97E00197F1F761
S113019000C0000060E089E10E9449028FEC97E012
S11301A00197F1F700C00000CF9108952FE788E38D
S11301B091E0215080409040E1F700C0000088E3C6
S11301C00E9496008CE00E94960081E00E949600B6
S11301D08FEC97E00197F1F700C0000086E00C94E3
S11301E09600811103C0862F806804C0813021F4F9
S11301F0862F806C0C9496000895CF93DF93EC01C6
S11302008991882319F00E94B600FACFDF91CF912B
S113021008950F931F93CF93DF93CDB7DEB7649701
S11302200FB6F894DEBF0FBECDBF0E947803DB018A
S11302309E012F5F3F4F109721F480E3898341E0B3
S11302401AC077FF08C04DE24983AA27BB27A61B23
S1130250B70B41E001C040E00AE010E0F901E40F0F
S1130260F11DCD01B8010E942804805D80834F5F99
S1130270DB01109799F7F901E40FF11D1082F901E0
S1130280D901CD01821B930B4D914111FACF9927CE
S1130290D901A80FB91F96958795820F931FE81768
S11302A0F90729F040815E9151934C93F8CFC9012D
S11302B00E94FD0064960FB6F894DEBF0FBECDBF5A
S11302C0DF91CF911F910F9108950E94410080E02A
S11302D090E00895CF93DF93E0E6F0E020EFA8EEFE
S11302E038EF40E050E081E090E0719171113CC042
S11302F0483078F4BAB3EC01042E02C0CC0FDD1FF1
S11303000A94E2F7BE017B2F762B7ABB7BB3609510
S11303103EC0383068F4B7B3BC01032E01C0660F89
S11303200A94EAF77B2F762B77BB78B360953FC0AE
S1130330283068F4B4B3BC01022E01C0660F0A94DD
S1130340EAF77B2F762B74BB75B3609540C0B1B3CD
S1130350BC010A2E01C0660F0A94EAF77B2F762BA4
S113036071BB72B3609541C0713009F040C0483030
S113037080F4BAB3EC01042E02C0CC0FDD1F0A9442
S1130380E2F7BE0160957B2F76237ABB7BB36723AC
S113039042C0383070F4B7B3BC01032E01C0660FFD
S11303A00A94EAF760957B2F762377BB78B36723AB
S11303B043C0283070F4B4B3BC01022E01C0660FF0
S11303C00A94EAF760957B2F762374BB75B3672391
S11303D044C0B1B3BC010A2E01C0660F0A94EAF707
S11303E060957B2F762371BB72B3672345C072304F
S11303F009F043C0483088F4BAB3EC01042E02C0BB
S1130400CC0FDD1F0A94E2F7BE017C2F70957B238D
S11304107ABB7BB3672B6BBB30C0383078F4B7B38F
S1130420BC01032E01C0660F0A94EAF7762F70957B
S11304307B2377BB78B3672B68BB1FC0283078F465
S1130440B4B3BC01022E01C0660F0A94EAF7762FFA
S113045070957B2374BB75B3672B65BB0EC0B1B3BA
S1130460BC010A2E01C0660F0A94EAF7762F709534
S11304707B2371BB72B3672B62BB4F5F5F4F3F5FE0
S1130480AF5F2F5F4032510509F02FCFDF91CF913D
S1130490089561113CC0883068F44BB321E030E02A
S11304A0B90102C0660F771F8A95E2F7CB018095E8
S11304B084233CC038EF380F383050F428B381E03F
S11304C090E001C0880F3A95EAF7809582233CC0FA
S11304D030EF380F383050F425B381E090E001C09C
S11304E0880F3A95EAF7809582233CC0885188307A
S11304F008F049C042B321E030E0B90102C0660F00
S1130500771F8A95E2F7CB01809584233BC0613045
S1130510D1F5883068F44BB321E030E0B90102C072
S1130520660F771F8A95E2F7CB01842B8BBB089566
S113053028EF280F283050F438B381E090E001C050
S1130540880F2A95EAF7832B88BB089520EF280F9C
S1130550283050F435B381E090E001C0880F2A952B
S1130560EAF7832B85BB08958851883060F442B341
S113057021E030E0B90102C0660F771F8A95E2F7E7
S1130580CB01842B82BB0895883068F44BB321E0FF
S113059030E0B90102C0660F771F8A95E2F7CB01FC
S11305A084278BBB089528EF280F283050F438B3E4
S11305B081E090E001C0880F2A95EAF7832788BB81
S11305C0089520EF280F283050F435B381E090E0EF
S11305D001C0880F2A95EAF7832785BB08958851BF
S11305E0883060F442B321E030E0B90102C0660F04
S11305F0771F8A95E2F7CB01842782BB0895813067
S113060041F028F0823039F0833039F008956BBB23
S1130610089568BB089565BB089562BB0895813051
S113062051F028F0823059F0833091F0089585B765
S113063096B78D7F07C085B796B78D7F0CC085B7F9
S113064096B7826096BF85BF85B796B78E7F08C080
S113065085B796B7826096BF85BF85B796B7816028
S113066096BF85BF0895813051F028F0823059F04B
S1130670833091F0089585B796B7877F07C085B713
S113068096B7877F0CC085B796B7886096BF85BF3D
S113069085B796B78B7F08C085B796B7886096BF35
S11306A085BF85B796B7846096BF85BF08958823B4
S11306B019F0813029F0089585B796B7877F03C074
S11306C085B796B7846096BF85BF08958BB79CB7EE
S11306D080649CBF8BBF08958BB79CB780689CBF18
S11306E08BBF08958BB79CB780629CBF8BBF089566
S11306F00E947F036894B1110C940E0408950E9423
S1130700F30388F09F5798F0B92F9927B751B0F0A9
S1130710E1F0660F771F881F991F1AF0BA95C9F781
S113072014C0B13091F00E940D04B1E008950C940E
S11307300D04672F782F8827B85F39F0B93FCCF3C1
S1130740869577956795B395D9F73EF490958095FE
S1130750709561957F4F8F4F9F4F0895E89409C01E
S113076097FB3EF490958095709561957F4F8F4FE0
S11307709F4F9923A9F0F92F96E9BB279395F695F6
S1130780879577956795B795F111F8CFFAF4BB0F74
S113079011F460FF1BC06F5F7F4F8F4F9F4F16C0D8
S11307A0882311F096E911C0772321F09EE8872F62
S11307B0762F05C0662371F096E8862F70E060E01E
S11307C02AF09A95660F771F881FDAF7880F969597
S11307D0879597F9089557FD9058440F551F59F080
S11307E05F3F71F04795880F97FB991F61F09F3F1A
S11307F079F087950895121613061406551FF2CF43
S11308004695F1DF08C0161617061806991FF1CF92
S113081086957105610508940895E894BB276627B9
S11308207727CB0197F90895AA1BBB1B51E107C099
S1130830AA1FBB1FA617B70710F0A61BB70B881F6C
S1130840991F5A95A9F780959095BC01CD010895FB
S113085097FB072E16F4009407D077FD09D00E9469
S1130860140407FC05D03EF4909581959F4F08959C
S10F0870709561957F4F0895F894FFCFB8
S113087C0101010000000001000000000000000064
S113088C0000000000000000000002000000000056
S9030000FC
