S010000061746D65676133322E7372656340
S11300000C942A000C9487020C94B0020C94D9022C
S11300100C9447000C9447000C94F8030C94A6032A
S11300200C94CF030C947D030C942B030C940203C7
S11300300C9447000C9458040C9447000C9447000B
S11300400C9447000C94F4000C9447000C94470063
S11300500C94470011241FBECFE5D8E0DEBFCDBF0E
S113006010E0A0E6B0E0E4E9F9E002C005900D92EA
S1130070A038B107D9F720E0A0E8B0E001C01D9294
S1130080AE3FB207E1F70E94EF000C94C8040C9451
S113009054038091800090E08F579F4F0E944B043F
S11300A0882329F0809180008F5F809380000895D9
S11300B0CF93DF93CDB7DEB760970FB6F894DEBF6A
S11300C00FBECDBF0E941D010E94C8000E942604DD
S11300D00E943B040E9439040E94560489E490E083
S11300E00E942104CE0101960E94B604CE0101961D
S11300F00E94E300CE0101960E9481042FEF89E65D
S113010098E1215080409040E1F700C00000EACF20
S1130110CF93C82F60E08BE10E94FC016C2F82E03A
S11301200E94770261E08CE10E94FC018FEC97E071
S11301300197F1F700C0000060E08CE10E94FC012F
S11301408FEC97E00197F1F700C00000CF9108957C
S1130150CF93C82F61E08BE10E94FC016C2F82E0F9
S11301600E94770261E08CE10E94FC018FEC97E031
S11301700197F1F700C0000060E08CE10E94FC01EF
S11301808FEC97E00197F1F700C00000CF9108953C
S11301902FE788E391E0215080409040E1F700C0D0
S11301A0000088E30E9488008CE00E94880081E0BF
S11301B00E9488008FEC97E00197F1F700C00000DF
S11301C086E00C948800CF93DF93EC018991882317
S11301D019F00E94A800FACFDF91CF9108950E94F0
S11301E0580080E090E008951F920F920FB60F928E
S11301F011242F933F934F935F936F937F938F9328
S11302009F93AF93BF93EF93FF93E091E500F09139
S1130210E600309709F00995FF91EF91BF91AF91F6
S11302209F918F917F916F915F914F913F912F910A
S11302300F900FBE0F901F901895CF93DF93E0E6B9
S1130240F0E020EFA8EE38EF40E050E081E090E0ED
S1130250719171113CC0483078F4BAB3EC01042EAA
S113026002C0CC0FDD1F0A94E2F7BE017B2F762B70
S11302707ABB7BB360953EC0383068F4B7B3BC0139
S1130280032E01C0660F0A94EAF77B2F762B77BB07
S113029078B360953FC0283068F4B4B3BC01022E33
S11302A001C0660F0A94EAF77B2F762B74BB75B3F3
S11302B0609540C0B1B3BC010A2E01C0660F0A9418
S11302C0EAF77B2F762B71BB72B3609541C0713016
S11302D009F040C0483080F4BAB3EC01042E02C0E7
S11302E0CC0FDD1F0A94E2F7BE0160957B2F7623C5
S11302F07ABB7BB3672342C0383070F4B7B3BC0118
S1130300032E01C0660F0A94EAF760957B2F7623CB
S113031077BB78B3672343C0283070F4B4B3BC010F
S1130320022E01C0660F0A94EAF760957B2F7623AC
S113033074BB75B3672344C0B1B3BC010A2E01C0BA
S1130340660F0A94EAF760957B2F762371BB72B32C
S1130350672345C0723009F043C0483088F4BAB30B
S1130360EC01042E02C0CC0FDD1F0A94E2F7BE019B
S11303707C2F70957B237ABB7BB3672B6BBB30C020
S1130380383078F4B7B3BC01032E01C0660F0A9469
S1130390EAF7762F70957B2377BB78B3672B68BB1E
S11303A01FC0283078F4B4B3BC01022E01C0660F1C
S11303B00A94EAF7762F70957B2374BB75B3672B89
S11303C065BB0EC0B1B3BC010A2E01C0660F0A940E
S11303D0EAF7762F70957B2371BB72B3672B62BBF0
S11303E04F5F5F4F3F5FAF5F2F5F4032510509F0B2
S11303F02FCFDF91CF91089561113CC0883068F40C
S11304004BB321E030E0B90102C0660F771F8A9533
S1130410E2F7CB01809584233CC038EF380F3830A5
S113042050F428B381E090E001C0880F3A95EAF7D0
S1130430809582233CC030EF380F383050F425B318
S113044081E090E001C0880F3A95EAF78095822315
S11304503CC08851883008F049C042B321E030E004
S1130460B90102C0660F771F8A95E2F7CB01809528
S113047084233BC06130D1F5883068F44BB321E06C
S113048030E0B90102C0660F771F8A95E2F7CB010D
S1130490842B8BBB089528EF280F283050F438B3F1
S11304A081E090E001C0880F2A95EAF7832B88BB8E
S11304B0089520EF280F283050F435B381E090E000
S11304C001C0880F2A95EAF7832B85BB08958851CC
S11304D0883060F442B321E030E0B90102C0660F15
S11304E0771F8A95E2F7CB01842B82BB0895813074
S11304F041F028F0823039F0833039F008956BBB35
S1130500089568BB089565BB089562BB08951F9262
S11305100F920FB60F9211242F933F934F935F9333
S11305206F937F938F939F93AF93BF93EF93FF93B7
S1130530E091EB00F091EC00309709F00995FF9100
S1130540EF91BF91AF919F918F917F916F915F9147
S11305504F913F912F910F900FBE0F901F901895C0
S11305601F920F920FB60F9211242F933F934F9324
S11305705F936F937F938F939F93AF93BF93EF9307
S1130580FF93E091E900F091EA00309709F00995B2
S1130590FF91EF91BF91AF919F918F917F916F9157
S11305A05F914F913F912F910F900FBE0F901F902D
S11305B018951F920F920FB60F9211242F933F9309
S11305C04F935F936F937F938F939F93AF93BF9357
S11305D0EF93FF93E091E700F091E800309709F082
S11305E00995FF91EF91BF91AF919F918F917F9169
S11305F06F915F914F913F912F910F900FBE0F908C
S11306001F9018951F920F920FB60F9211242F93DB
S11306103F934F935F936F937F938F939F93AF9386
S1130620BF93EF93FF93E091F100F091F2003097C4
S113063009F00995FF91EF91BF91AF919F918F912F
S11306407F916F915F914F913F912F910F900FBECA
S11306500F901F9018951F920F920FB60F921124AE
S11306602F933F934F935F936F937F938F939F93B6
S1130670AF93BF93EF93FF93E091EF00F091F000FD
S1130680309709F00995FF91EF91BF91AF919F9138
S11306908F917F916F915F914F913F912F910F9027
S11306A00FBE0F901F9018951F920F920FB60F92C6
S11306B011242F933F934F935F936F937F938F9363
S11306C09F93AF93BF93EF93FF93E091ED00F0916D
S11306D0EE00309709F00995FF91EF91BF91AF912A
S11306E09F918F917F916F915F914F913F912F9146
S11306F00F900FBE0F901F9018951F920F920FB678
S11307000F9211242F933F934F935F936F937F9393
S11307108F939F93AF93BF93EF93FF93E091F9006F
S1130720F091FA00309709F00995FF91EF91BF918C
S1130730AF919F918F917F916F915F914F913F9175
S11307402F910F900FBE0F901F9018951F920F922C
S11307500FB60F9211242F933F934F935F936F9390
S11307607F938F939F93AF93BF93EF93FF93E09106
S1130770F700F091F800309709F00995FF91EF9197
S1130780BF91AF919F918F917F916F915F914F91A5
S11307903F912F910F900FBE0F901F9018951F92AD
S11307A00F920FB60F9211242F933F934F935F93A1
S11307B06F937F938F939F93AF93BF93EF93FF9325
S11307C0E091F500F091F600309709F00995FF915A
S11307D0EF91BF91AF919F918F917F916F915F91B5
S11307E04F913F912F910F900FBE0F901F9018952E
S11307F01F920F920FB60F9211242F933F934F9392
S11308005F936F937F938F939F93AF93BF93EF9374
S1130810FF93E091F300F091F400309709F009950B
S1130820FF91EF91BF91AF919F918F917F916F91C4
S11308305F914F913F912F910F900FBE0F901F909A
S113084018959093FD008093FC00089583E389B983
S113085080B5806880BD599880B5806880BD80B5BA
S1130860806880BD80B5806880BD81E08093FB0096
S11308700895549A0895539A0895982F8091FB00EF
S1130880882321F05D9BFECF9CB981E008955F9B96
S1130890FECF8CB10895FC019BB1892F881F882756
S11308A0881F19F08CB1808381E00895579A0895C8
S11308B01F920F920FB60F9211242F933F934F93D1
S11308C05F936F937F938F939F93AF93BF93EF93B4
S11308D0FF93E091FC00F091FD00309709F0099539
S11308E0FF91EF91BF91AF919F918F917F916F9104
S11308F05F914F913F912F910F900FBE0F901F90DA
S11309001895CF92DF92EF92FF920F931F93CF939C
S1130910DF937C0110E0F701E10FF11D8081882352
S113092011F01F5FF8CF812F0E943D040E2DCE2DB4
S1130930DF2DE12CF12C8C2F801B811748F46E01E4
S113094089910E943D04F6018081E80EF11CF3CFE9
S11309508E2D0E943D048F2DDF91CF911F910F9119
S1130960FF90EF90DF90CF900C943D040F931F9372
S1130970CF93DF93EC018E010E94470489938D305D
S1130980D1F7F8011082DF91CF911F910F91089553
S1070990F894FFCF05
S11309940101010000000001000002000000000049
S11309A4000000000000000001000200000000003C
S9030000FC
