S010000061746D65676133322E7372656340
S11300000C942A000C943F000C943F000C943F0085
S11300100C943F000C943F000C943F000C943F0060
S11300200C943F000C943F000C943F000C943F0050
S11300300C943F000C943F000C943F000C943F0040
S11300400C943F000C943F000C943F000C943F0030
S11300500C943F0011241FBECFE5D8E0DEBFCDBF16
S113006010E0A0E6B0E0E4E5F4E002C005900D92F3
S1130070A838B107D9F70E94B9000C9428020C944F
S113008000000E94BE000E94900087E40E94AB0022
S113009080E690E00E94AD0087E40E94AB00FCCFB4
S11300A0CF93C82F60E088E00E949D016C2F80E010
S11300B00E94180261E089E00E949D018FEC97E0A4
S11300C00197F1F700C0000060E089E00E949D0103
S11300D08FEC97E00197F1F700C00000CF910895ED
S11300E0CF93C82F61E088E00E949D016C2F80E0CF
S11300F00E94180261E089E00E949D018FEC97E064
S11301000197F1F700C0000060E089E00E949D01C2
S11301108FEC97E00197F1F700C00000CF910895AC
S11301202FE788E391E0215080409040E1F700C040
S1130130000088E30E9450008FE00E94500081E09C
S11301400E9450008FEC97E00197F1F700C0000087
S113015086E00C9450000C947000CF93DF93EC0174
S11301608991882319F00E947000FACFDF91CF9112
S113017008950E94410080E090E00895CF93DF93BA
S1130180E8E6F0E020EFA8EE38EF40E050E081E050
S113019090E0719171113CC0483078F4BAB3EC012D
S11301A0042E02C0CC0FDD1F0A94E2F7BE017B2FA0
S11301B0762B7ABB7BB360953EC0383068F4B7B316
S11301C0BC01032E01C0660F0A94EAF77B2F762B3D
S11301D077BB78B360953FC0283068F4B4B3BC01F2
S11301E0022E01C0660F0A94EAF77B2F762B74BBAC
S11301F075B3609540C0B1B3BC010A2E01C0660F4F
S11302000A94EAF77B2F762B71BB72B3609541C0D9
S1130210713009F040C0483080F4BAB3EC01042EC8
S113022002C0CC0FDD1F0A94E2F7BE0160957B2F5C
S113023076237ABB7BB3672342C0383070F4B7B3FC
S1130240BC01032E01C0660F0A94EAF760957B2F68
S1130250762377BB78B3672343C0283070F4B4B3F4
S1130260BC01022E01C0660F0A94EAF760957B2F49
S1130270762374BB75B3672344C0B1B3BC010A2EA3
S113028001C0660F0A94EAF760957B2F762371BB51
S113029072B3672345C0723009F043C0483088F414
S11302A0BAB3EC01042E02C0CC0FDD1F0A94E2F7AE
S11302B0BE017C2F70957B237ABB7BB3672B6BBB12
S11302C030C0383078F4B7B3BC01032E01C0660FD8
S11302D00A94EAF7762F70957B2377BB78B3672B64
S11302E068BB1FC0283078F4B4B3BC01022E01C02F
S11302F0660F0A94EAF7762F70957B2374BB75B367
S1130300672B65BB0EC0B1B3BC010A2E01C0660FDA
S11303100A94EAF7762F70957B2371BB72B3672B2F
S113032062BB4F5F5F4F3F5FAF5F2F5F403251054E
S113033009F02FCFDF91CF91089561113CC088302F
S113034068F44BB321E030E0B90102C0660F771FB7
S11303508A95E2F7CB01809584233CC038EF380FAF
S1130360383050F428B381E090E001C0880F3A950A
S1130370EAF7809582233CC030EF380F383050F4D0
S113038025B381E090E001C0880F3A95EAF78095A3
S113039082233CC08851883008F049C042B321E030
S11303A030E0B90102C0660F771F8A95E2F7CB01EE
S11303B0809584233BC06130D1F5883068F44BB319
S11303C021E030E0B90102C0660F771F8A95E2F799
S11303D0CB01842B8BBB089528EF280F283050F4D1
S11303E038B381E090E001C0880F2A95EAF7832BA7
S11303F088BB089520EF280F283050F435B381E0EE
S113040090E001C0880F2A95EAF7832B85BB0895F5
S11304108851883060F442B321E030E0B90102C071
S1130420660F771F8A95E2F7CB01842B82BB089570
S1130430813041F028F0823039F0833039F008956A
S11304406BBB089568BB089565BB089562BB0895AE
S1070450F894FFCF4A
S11304544D6F68616D6564000000000000000000D9
S1130464000000000000000000000000020202027C
S10B047400000000000000007C
S9030000FC
