S010000061746D65676133322E7372656340
S11300000C942A000C943F000C943F000C943F0085
S11300100C943F000C943F000C943F000C943F0060
S11300200C943F000C943F000C943F000C943F0050
S11300300C943F000C943F000C943F000C943F0040
S11300400C943F000C943F000C943F000C943F0030
S11300500C943F0011241FBECFE5D8E0DEBFCDBF16
S113006010E0A0E6B0E0ECE8F4E002C005900D92E8
S1130070A038B107D9F70E9441000C9444020C94B3
S113008000000E946A0061E082E00E94490183E06E
S11300900E94FF01882381F061E085E00E9449010C
S11300A02FEF89E698E1215080409040E1F700C0AD
S11300B0000085E00E94C4016AEA83E00E942402F1
S11300C083E00E943402682F82E00E94240280E0D0
S11300D090E00895CF93DF93E0E6F0E020EFA8EE00
S11300E038EF40E050E081E090E0719171113CC044
S11300F0483078F4BAB3EC01042E02C0CC0FDD1FF3
S11301000A94E2F7BE017B2F762B7ABB7BB3609512
S11301103EC0383068F4B7B3BC01032E01C0660F8B
S11301200A94EAF77B2F762B77BB78B360953FC0B0
S1130130283068F4B4B3BC01022E01C0660F0A94DF
S1130140EAF77B2F762B74BB75B3609540C0B1B3CF
S1130150BC010A2E01C0660F0A94EAF77B2F762BA6
S113016071BB72B3609541C0713009F040C0483032
S113017080F4BAB3EC01042E02C0CC0FDD1F0A9444
S1130180E2F7BE0160957B2F76237ABB7BB36723AE
S113019042C0383070F4B7B3BC01032E01C0660FFF
S11301A00A94EAF760957B2F762377BB78B36723AD
S11301B043C0283070F4B4B3BC01022E01C0660FF2
S11301C00A94EAF760957B2F762374BB75B3672393
S11301D044C0B1B3BC010A2E01C0660F0A94EAF709
S11301E060957B2F762371BB72B3672345C0723051
S11301F009F043C0483088F4BAB3EC01042E02C0BD
S1130200CC0FDD1F0A94E2F7BE017C2F70957B238F
S11302107ABB7BB3672B6BBB30C0383078F4B7B391
S1130220BC01032E01C0660F0A94EAF7762F70957D
S11302307B2377BB78B3672B68BB1FC0283078F467
S1130240B4B3BC01022E01C0660F0A94EAF7762FFC
S113025070957B2374BB75B3672B65BB0EC0B1B3BC
S1130260BC010A2E01C0660F0A94EAF7762F709536
S11302707B2371BB72B3672B62BB4F5F5F4F3F5FE2
S1130280AF5F2F5F4032510509F02FCFDF91CF913F
S1130290089561113CC0883068F44BB321E030E02C
S11302A0B90102C0660F771F8A95E2F7CB018095EA
S11302B084233CC038EF380F383050F428B381E041
S11302C090E001C0880F3A95EAF7809582233CC0FC
S11302D030EF380F383050F425B381E090E001C09E
S11302E0880F3A95EAF7809582233CC0885188307C
S11302F008F049C042B321E030E0B90102C0660F02
S1130300771F8A95E2F7CB01809584233BC0613047
S1130310D1F5883068F44BB321E030E0B90102C074
S1130320660F771F8A95E2F7CB01842B8BBB089568
S113033028EF280F283050F438B381E090E001C052
S1130340880F2A95EAF7832B88BB089520EF280F9E
S1130350283050F435B381E090E001C0880F2A952D
S1130360EAF7832B85BB08958851883060F442B343
S113037021E030E0B90102C0660F771F8A95E2F7E9
S1130380CB01842B82BB0895883068F44BB321E001
S113039030E0B90102C0660F771F8A95E2F7CB01FE
S11303A084278BBB089528EF280F283050F438B3E6
S11303B081E090E001C0880F2A95EAF7832788BB83
S11303C0089520EF280F283050F435B381E090E0F1
S11303D001C0880F2A95EAF7832785BB08958851C1
S11303E0883060F442B321E030E0B90102C0660F06
S11303F0771F8A95E2F7CB01842782BB0895282FC3
S1130400883010F49BB316C038EF380F383010F42E
S113041088B305C030EF380F383040F485B390E02E
S113042002C0959587953A95E2F70BC0285128307C
S113043050F492B3892F90E002C0959587952A9540
S1130440E2F7817008950895813041F028F08230F8
S113045039F0833039F008956BBB089568BB089573
S113046065BB089562BB0895813049F030F0823055
S113047041F0833041F482B308958BB3089588B377
S10F0480089585B308950895F894FFCF03
S113048C000000020000000000000000000000005A
S113049C000000000000000000000000000000004C
S9030000FC
